{
  "_format": "hh-sol-artifact-1",
  "contractName": "PropertyTitle",
  "sourceName": "contracts/PropertyTitle.sol",
  "abi": [
    {
      "inputs": [],
      "stateMutability": "nonpayable",
      "type": "constructor"
    },
    {
      "inputs": [
        {
          "internalType": "address",
          "name": "sender",
          "type": "address"
        },
        {
          "internalType": "uint256",
          "name": "tokenId",
          "type": "uint256"
        },
        {
          "internalType": "address",
          "name": "owner",
          "type": "address"
        }
      ],
      "name": "ERC721IncorrectOwner",
      "type": "error"
    },
    {
      "inputs": [
        {
          "internalType": "address",
          "name": "operator",
          "type": "address"
        },
        {
          "internalType": "uint256",
          "name": "tokenId",
          "type": "uint256"
        }
      ],
      "name": "ERC721InsufficientApproval",
      "type": "error"
    },
    {
      "inputs": [
        {
          "internalType": "address",
          "name": "approver",
          "type": "address"
        }
      ],
      "name": "ERC721InvalidApprover",
      "type": "error"
    },
    {
      "inputs": [
        {
          "internalType": "address",
          "name": "operator",
          "type": "address"
        }
      ],
      "name": "ERC721InvalidOperator",
      "type": "error"
    },
    {
      "inputs": [
        {
          "internalType": "address",
          "name": "owner",
          "type": "address"
        }
      ],
      "name": "ERC721InvalidOwner",
      "type": "error"
    },
    {
      "inputs": [
        {
          "internalType": "address",
          "name": "receiver",
          "type": "address"
        }
      ],
      "name": "ERC721InvalidReceiver",
      "type": "error"
    },
    {
      "inputs": [
        {
          "internalType": "address",
          "name": "sender",
          "type": "address"
        }
      ],
      "name": "ERC721InvalidSender",
      "type": "error"
    },
    {
      "inputs": [
        {
          "internalType": "uint256",
          "name": "tokenId",
          "type": "uint256"
        }
      ],
      "name": "ERC721NonexistentToken",
      "type": "error"
    },
    {
      "inputs": [
        {
          "internalType": "address",
          "name": "owner",
          "type": "address"
        }
      ],
      "name": "OwnableInvalidOwner",
      "type": "error"
    },
    {
      "inputs": [
        {
          "internalType": "address",
          "name": "account",
          "type": "address"
        }
      ],
      "name": "OwnableUnauthorizedAccount",
      "type": "error"
    },
    {
      "anonymous": false,
      "inputs": [
        {
          "indexed": true,
          "internalType": "address",
          "name": "owner",
          "type": "address"
        },
        {
          "indexed": true,
          "internalType": "address",
          "name": "approved",
          "type": "address"
        },
        {
          "indexed": true,
          "internalType": "uint256",
          "name": "tokenId",
          "type": "uint256"
        }
      ],
      "name": "Approval",
      "type": "event"
    },
    {
      "anonymous": false,
      "inputs": [
        {
          "indexed": true,
          "internalType": "address",
          "name": "owner",
          "type": "address"
        },
        {
          "indexed": true,
          "internalType": "address",
          "name": "operator",
          "type": "address"
        },
        {
          "indexed": false,
          "internalType": "bool",
          "name": "approved",
          "type": "bool"
        }
      ],
      "name": "ApprovalForAll",
      "type": "event"
    },
    {
      "anonymous": false,
      "inputs": [
        {
          "indexed": true,
          "internalType": "address",
          "name": "previousOwner",
          "type": "address"
        },
        {
          "indexed": true,
          "internalType": "address",
          "name": "newOwner",
          "type": "address"
        }
      ],
      "name": "OwnershipTransferred",
      "type": "event"
    },
    {
      "anonymous": false,
      "inputs": [
        {
          "indexed": true,
          "internalType": "uint256",
          "name": "tokenId",
          "type": "uint256"
        },
        {
          "indexed": true,
          "internalType": "address",
          "name": "owner",
          "type": "address"
        },
        {
          "indexed": false,
          "internalType": "string",
          "name": "propertyId",
          "type": "string"
        }
      ],
      "name": "TitleMinted",
      "type": "event"
    },
    {
      "anonymous": false,
      "inputs": [
        {
          "indexed": true,
          "internalType": "uint256",
          "name": "tokenId",
          "type": "uint256"
        },
        {
          "indexed": false,
          "internalType": "bool",
          "name": "verified",
          "type": "bool"
        }
      ],
      "name": "TitleVerified",
      "type": "event"
    },
    {
      "anonymous": false,
      "inputs": [
        {
          "indexed": true,
          "internalType": "address",
          "name": "from",
          "type": "address"
        },
        {
          "indexed": true,
          "internalType": "address",
          "name": "to",
          "type": "address"
        },
        {
          "indexed": true,
          "internalType": "uint256",
          "name": "tokenId",
          "type": "uint256"
        }
      ],
      "name": "Transfer",
      "type": "event"
    },
    {
      "inputs": [
        {
          "internalType": "address",
          "name": "to",
          "type": "address"
        },
        {
          "internalType": "uint256",
          "name": "tokenId",
          "type": "uint256"
        }
      ],
      "name": "approve",
      "outputs": [],
      "stateMutability": "nonpayable",
      "type": "function"
    },
    {
      "inputs": [
        {
          "internalType": "address",
          "name": "owner",
          "type": "address"
        }
      ],
      "name": "balanceOf",
      "outputs": [
        {
          "internalType": "uint256",
          "name": "",
          "type": "uint256"
        }
      ],
      "stateMutability": "view",
      "type": "function"
    },
    {
      "inputs": [
        {
          "internalType": "uint256",
          "name": "tokenId",
          "type": "uint256"
        }
      ],
      "name": "getApproved",
      "outputs": [
        {
          "internalType": "address",
          "name": "",
          "type": "address"
        }
      ],
      "stateMutability": "view",
      "type": "function"
    },
    {
      "inputs": [
        {
          "internalType": "uint256",
          "name": "tokenId",
          "type": "uint256"
        }
      ],
      "name": "getPropertyDetails",
      "outputs": [
        {
          "components": [
            {
              "internalType": "string",
              "name": "surveyNumber",
              "type": "string"
            },
            {
              "internalType": "string",
              "name": "propertyId",
              "type": "string"
            },
            {
              "internalType": "string",
              "name": "propertyAddress",
              "type": "string"
            },
            {
              "internalType": "uint256",
              "name": "area",
              "type": "uint256"
            },
            {
              "internalType": "string",
              "name": "ownerName",
              "type": "string"
            },
            {
              "internalType": "string",
              "name": "description",
              "type": "string"
            },
            {
              "internalType": "string[]",
              "name": "documentHashes",
              "type": "string[]"
            },
            {
              "internalType": "bool",
              "name": "verified",
              "type": "bool"
            }
          ],
          "internalType": "struct PropertyTitle.PropertyDetails",
          "name": "",
          "type": "tuple"
        }
      ],
      "stateMutability": "view",
      "type": "function"
    },
    {
      "inputs": [
        {
          "internalType": "address",
          "name": "owner",
          "type": "address"
        },
        {
          "internalType": "address",
          "name": "operator",
          "type": "address"
        }
      ],
      "name": "isApprovedForAll",
      "outputs": [
        {
          "internalType": "bool",
          "name": "",
          "type": "bool"
        }
      ],
      "stateMutability": "view",
      "type": "function"
    },
    {
      "inputs": [
        {
          "internalType": "uint256",
          "name": "tokenId",
          "type": "uint256"
        }
      ],
      "name": "isVerified",
      "outputs": [
        {
          "internalType": "bool",
          "name": "",
          "type": "bool"
        }
      ],
      "stateMutability": "view",
      "type": "function"
    },
    {
      "inputs": [
        {
          "internalType": "address",
          "name": "to",
          "type": "address"
        },
        {
          "internalType": "string",
          "name": "surveyNumber",
          "type": "string"
        },
        {
          "internalType": "string",
          "name": "propertyId",
          "type": "string"
        },
        {
          "internalType": "string",
          "name": "propertyAddress",
          "type": "string"
        },
        {
          "internalType": "uint256",
          "name": "area",
          "type": "uint256"
        },
        {
          "internalType": "string",
          "name": "ownerName",
          "type": "string"
        },
        {
          "internalType": "string",
          "name": "description",
          "type": "string"
        },
        {
          "internalType": "string[]",
          "name": "documentHashes",
          "type": "string[]"
        }
      ],
      "name": "mintTitle",
      "outputs": [
        {
          "internalType": "uint256",
          "name": "",
          "type": "uint256"
        }
      ],
      "stateMutability": "nonpayable",
      "type": "function"
    },
    {
      "inputs": [],
      "name": "name",
      "outputs": [
        {
          "internalType": "string",
          "name": "",
          "type": "string"
        }
      ],
      "stateMutability": "view",
      "type": "function"
    },
    {
      "inputs": [],
      "name": "owner",
      "outputs": [
        {
          "internalType": "address",
          "name": "",
          "type": "address"
        }
      ],
      "stateMutability": "view",
      "type": "function"
    },
    {
      "inputs": [
        {
          "internalType": "uint256",
          "name": "tokenId",
          "type": "uint256"
        }
      ],
      "name": "ownerOf",
      "outputs": [
        {
          "internalType": "address",
          "name": "",
          "type": "address"
        }
      ],
      "stateMutability": "view",
      "type": "function"
    },
    {
      "inputs": [
        {
          "internalType": "uint256",
          "name": "",
          "type": "uint256"
        }
      ],
      "name": "propertyDetails",
      "outputs": [
        {
          "internalType": "string",
          "name": "surveyNumber",
          "type": "string"
        },
        {
          "internalType": "string",
          "name": "propertyId",
          "type": "string"
        },
        {
          "internalType": "string",
          "name": "propertyAddress",
          "type": "string"
        },
        {
          "internalType": "uint256",
          "name": "area",
          "type": "uint256"
        },
        {
          "internalType": "string",
          "name": "ownerName",
          "type": "string"
        },
        {
          "internalType": "string",
          "name": "description",
          "type": "string"
        },
        {
          "internalType": "bool",
          "name": "verified",
          "type": "bool"
        }
      ],
      "stateMutability": "view",
      "type": "function"
    },
    {
      "inputs": [],
      "name": "renounceOwnership",
      "outputs": [],
      "stateMutability": "nonpayable",
      "type": "function"
    },
    {
      "inputs": [
        {
          "internalType": "address",
          "name": "from",
          "type": "address"
        },
        {
          "internalType": "address",
          "name": "to",
          "type": "address"
        },
        {
          "internalType": "uint256",
          "name": "tokenId",
          "type": "uint256"
        }
      ],
      "name": "safeTransferFrom",
      "outputs": [],
      "stateMutability": "nonpayable",
      "type": "function"
    },
    {
      "inputs": [
        {
          "internalType": "address",
          "name": "from",
          "type": "address"
        },
        {
          "internalType": "address",
          "name": "to",
          "type": "address"
        },
        {
          "internalType": "uint256",
          "name": "tokenId",
          "type": "uint256"
        },
        {
          "internalType": "bytes",
          "name": "data",
          "type": "bytes"
        }
      ],
      "name": "safeTransferFrom",
      "outputs": [],
      "stateMutability": "nonpayable",
      "type": "function"
    },
    {
      "inputs": [
        {
          "internalType": "address",
          "name": "operator",
          "type": "address"
        },
        {
          "internalType": "bool",
          "name": "approved",
          "type": "bool"
        }
      ],
      "name": "setApprovalForAll",
      "outputs": [],
      "stateMutability": "nonpayable",
      "type": "function"
    },
    {
      "inputs": [
        {
          "internalType": "uint256",
          "name": "tokenId",
          "type": "uint256"
        },
        {
          "internalType": "bool",
          "name": "status",
          "type": "bool"
        }
      ],
      "name": "setVerified",
      "outputs": [],
      "stateMutability": "nonpayable",
      "type": "function"
    },
    {
      "inputs": [
        {
          "internalType": "bytes4",
          "name": "interfaceId",
          "type": "bytes4"
        }
      ],
      "name": "supportsInterface",
      "outputs": [
        {
          "internalType": "bool",
          "name": "",
          "type": "bool"
        }
      ],
      "stateMutability": "view",
      "type": "function"
    },
    {
      "inputs": [],
      "name": "symbol",
      "outputs": [
        {
          "internalType": "string",
          "name": "",
          "type": "string"
        }
      ],
      "stateMutability": "view",
      "type": "function"
    },
    {
      "inputs": [
        {
          "internalType": "uint256",
          "name": "tokenId",
          "type": "uint256"
        }
      ],
      "name": "tokenURI",
      "outputs": [
        {
          "internalType": "string",
          "name": "",
          "type": "string"
        }
      ],
      "stateMutability": "view",
      "type": "function"
    },
    {
      "inputs": [
        {
          "internalType": "address",
          "name": "from",
          "type": "address"
        },
        {
          "internalType": "address",
          "name": "to",
          "type": "address"
        },
        {
          "internalType": "uint256",
          "name": "tokenId",
          "type": "uint256"
        }
      ],
      "name": "transferFrom",
      "outputs": [],
      "stateMutability": "nonpayable",
      "type": "function"
    },
    {
      "inputs": [
        {
          "internalType": "address",
          "name": "newOwner",
          "type": "address"
        }
      ],
      "name": "transferOwnership",
      "outputs": [],
      "stateMutability": "nonpayable",
      "type": "function"
    }
  ],
  "bytecode": "0x60806040523480156200001157600080fd5b50336040518060400160405280601381526020017f4c616e64205265676973747279205469746c65000000000000000000000000008152506040518060400160405280600381526020017f4c52540000000000000000000000000000000000000000000000000000000000815250816000908162000090919062000472565b508060019081620000a2919062000472565b505050600073ffffffffffffffffffffffffffffffffffffffff168173ffffffffffffffffffffffffffffffffffffffff16036200011a5760006040517f1e4fbdf70000000000000000000000000000000000000000000000000000000081526004016200011191906200059e565b60405180910390fd5b6200012b816200013260201b60201c565b50620005bb565b6000600660009054906101000a900473ffffffffffffffffffffffffffffffffffffffff16905081600660006101000a81548173ffffffffffffffffffffffffffffffffffffffff021916908373ffffffffffffffffffffffffffffffffffffffff1602179055508173ffffffffffffffffffffffffffffffffffffffff168173ffffffffffffffffffffffffffffffffffffffff167f8be0079c531659141344cd1fd0a4f28419497f9722a3daafe3b4186f6b6457e060405160405180910390a35050565b600081519050919050565b7f4e487b7100000000000000000000000000000000000000000000000000000000600052604160045260246000fd5b7f4e487b7100000000000000000000000000000000000000000000000000000000600052602260045260246000fd5b600060028204905060018216806200027a57607f821691505b60208210810362000290576200028f62000232565b5b50919050565b60008190508160005260206000209050919050565b60006020601f8301049050919050565b600082821b905092915050565b600060088302620002fa7fffffffffffffffffffffffffffffffffffffffffffffffffffffffffffffffff82620002bb565b620003068683620002bb565b95508019841693508086168417925050509392505050565b6000819050919050565b6000819050919050565b6000620003536200034d62000347846200031e565b62000328565b6200031e565b9050919050565b6000819050919050565b6200036f8362000332565b620003876200037e826200035a565b848454620002c8565b825550505050565b600090565b6200039e6200038f565b620003ab81848462000364565b505050565b5b81811015620003d357620003c760008262000394565b600181019050620003b1565b5050565b601f8211156200042257620003ec8162000296565b620003f784620002ab565b8101602085101562000407578190505b6200041f6200041685620002ab565b830182620003b0565b50505b505050565b600082821c905092915050565b6000620004476000198460080262000427565b1980831691505092915050565b600062000462838362000434565b9150826002028217905092915050565b6200047d82620001f8565b67ffffffffffffffff81111562000499576200049862000203565b5b620004a5825462000261565b620004b2828285620003d7565b600060209050601f831160018114620004ea5760008415620004d5578287015190505b620004e1858262000454565b86555062000551565b601f198416620004fa8662000296565b60005b828110156200052457848901518255600182019150602085019450602081019050620004fd565b8683101562000544578489015162000540601f89168262000434565b8355505b6001600288020188555050505b505050505050565b600073ffffffffffffffffffffffffffffffffffffffff82169050919050565b6000620005868262000559565b9050919050565b620005988162000579565b82525050565b6000602082019050620005b560008301846200058d565b92915050565b613b4e80620005cb6000396000f3fe608060405234801561001057600080fd5b50600436106101375760003560e01c806370a08231116100b8578063a22cb4651161007c578063a22cb46514610366578063b315b0cb14610382578063b88d4fde146103b2578063c87b56dd146103ce578063e985e9c5146103fe578063f2fde38b1461042e57610137565b806370a08231146102ba578063715018a6146102ea57806381db4147146102f45780638da5cb5b1461032a57806395d89b411461034857610137565b806323b872dd116100ff57806323b872dd1461020657806334756d951461022257806337b6d96b1461023e57806342842e0e1461026e5780636352211e1461028a57610137565b806301ffc9a71461013c57806306fdde031461016c578063081812fc1461018a578063095ea7b3146101ba578063126dbe43146101d6575b600080fd5b610156600480360381019061015191906127d6565b61044a565b604051610163919061281e565b60405180910390f35b61017461052c565b60405161018191906128c9565b60405180910390f35b6101a4600480360381019061019f9190612921565b6105be565b6040516101b1919061298f565b60405180910390f35b6101d460048036038101906101cf91906129d6565b6105da565b005b6101f060048036038101906101eb9190612921565b6105f0565b6040516101fd9190612c13565b60405180910390f35b610220600480360381019061021b9190612c35565b610a6d565b005b61023c60048036038101906102379190612cb4565b610b6f565b005b61025860048036038101906102539190612921565b610c58565b604051610265919061281e565b60405180910390f35b61028860048036038101906102839190612c35565b610cfb565b005b6102a4600480360381019061029f9190612921565b610d1b565b6040516102b1919061298f565b60405180910390f35b6102d460048036038101906102cf9190612cf4565b610d2d565b6040516102e19190612d30565b60405180910390f35b6102f2610de7565b005b61030e60048036038101906103099190612921565b610dfb565b6040516103219796959493929190612d4b565b60405180910390f35b6103326110f2565b60405161033f919061298f565b60405180910390f35b61035061111c565b60405161035d91906128c9565b60405180910390f35b610380600480360381019061037b9190612ddd565b6111ae565b005b61039c60048036038101906103979190613038565b6111c4565b6040516103a99190612d30565b60405180910390f35b6103cc60048036038101906103c79190613237565b6115d7565b005b6103e860048036038101906103e39190612921565b6115fc565b6040516103f591906128c9565b60405180910390f35b610418600480360381019061041391906132ba565b611665565b604051610425919061281e565b60405180910390f35b61044860048036038101906104439190612cf4565b6116f9565b005b60007f80ac58cd000000000000000000000000000000000000000000000000000000007bffffffffffffffffffffffffffffffffffffffffffffffffffffffff1916827bffffffffffffffffffffffffffffffffffffffffffffffffffffffff1916148061051557507f5b5e139f000000000000000000000000000000000000000000000000000000007bffffffffffffffffffffffffffffffffffffffffffffffffffffffff1916827bffffffffffffffffffffffffffffffffffffffffffffffffffffffff1916145b8061052557506105248261177f565b5b9050919050565b60606000805461053b90613329565b80601f016020809104026020016040519081016040528092919081815260200182805461056790613329565b80156105b45780601f10610589576101008083540402835291602001916105b4565b820191906000526020600020905b81548152906001019060200180831161059757829003601f168201915b5050505050905090565b60006105c9826117e9565b506105d382611871565b9050919050565b6105ec82826105e76118ae565b6118b6565b5050565b6105f8612649565b600073ffffffffffffffffffffffffffffffffffffffff16610619836118c8565b73ffffffffffffffffffffffffffffffffffffffff160361066f576040517f08c379a0000000000000000000000000000000000000000000000000000000008152600401610666906133a6565b60405180910390fd5b600a60008381526020019081526020016000206040518061010001604052908160008201805461069e90613329565b80601f01602080910402602001604051908101604052809291908181526020018280546106ca90613329565b80156107175780601f106106ec57610100808354040283529160200191610717565b820191906000526020600020905b8154815290600101906020018083116106fa57829003601f168201915b5050505050815260200160018201805461073090613329565b80601f016020809104026020016040519081016040528092919081815260200182805461075c90613329565b80156107a95780601f1061077e576101008083540402835291602001916107a9565b820191906000526020600020905b81548152906001019060200180831161078c57829003601f168201915b505050505081526020016002820180546107c290613329565b80601f01602080910402602001604051908101604052809291908181526020018280546107ee90613329565b801561083b5780601f106108105761010080835404028352916020019161083b565b820191906000526020600020905b81548152906001019060200180831161081e57829003601f168201915b505050505081526020016003820154815260200160048201805461085e90613329565b80601f016020809104026020016040519081016040528092919081815260200182805461088a90613329565b80156108d75780601f106108ac576101008083540402835291602001916108d7565b820191906000526020600020905b8154815290600101906020018083116108ba57829003601f168201915b505050505081526020016005820180546108f090613329565b80601f016020809104026020016040519081016040528092919081815260200182805461091c90613329565b80156109695780601f1061093e57610100808354040283529160200191610969565b820191906000526020600020905b81548152906001019060200180831161094c57829003601f168201915b5050505050815260200160068201805480602002602001604051908101604052809291908181526020016000905b82821015610a435783829060005260206000200180546109b690613329565b80601f01602080910402602001604051908101604052809291908181526020018280546109e290613329565b8015610a2f5780601f10610a0457610100808354040283529160200191610a2f565b820191906000526020600020905b815481529060010190602001808311610a1257829003601f168201915b505050505081526020019060010190610997565b5050505081526020016007820160009054906101000a900460ff1615151515815250509050919050565b600073ffffffffffffffffffffffffffffffffffffffff168273ffffffffffffffffffffffffffffffffffffffff1603610adf5760006040517f64a0ae92000000000000000000000000000000000000000000000000000000008152600401610ad6919061298f565b60405180910390fd5b6000610af38383610aee6118ae565b611905565b90508373ffffffffffffffffffffffffffffffffffffffff168173ffffffffffffffffffffffffffffffffffffffff1614610b69578382826040517f64283d7b000000000000000000000000000000000000000000000000000000008152600401610b60939291906133c6565b60405180910390fd5b50505050565b610b77611b1f565b600073ffffffffffffffffffffffffffffffffffffffff16610b98836118c8565b73ffffffffffffffffffffffffffffffffffffffff1603610bee576040517f08c379a0000000000000000000000000000000000000000000000000000000008152600401610be5906133a6565b60405180910390fd5b80600a600084815260200190815260200160002060070160006101000a81548160ff021916908315150217905550817fa37b353ad3cf7875d757795e0706de3dedbd3523253767fd346ad9bd139a017582604051610c4c919061281e565b60405180910390a25050565b60008073ffffffffffffffffffffffffffffffffffffffff16610c7a836118c8565b73ffffffffffffffffffffffffffffffffffffffff1603610cd0576040517f08c379a0000000000000000000000000000000000000000000000000000000008152600401610cc7906133a6565b60405180910390fd5b600a600083815260200190815260200160002060070160009054906101000a900460ff169050919050565b610d16838383604051806020016040528060008152506115d7565b505050565b6000610d26826117e9565b9050919050565b60008073ffffffffffffffffffffffffffffffffffffffff168273ffffffffffffffffffffffffffffffffffffffff1603610da05760006040517f89c62b64000000000000000000000000000000000000000000000000000000008152600401610d97919061298f565b60405180910390fd5b600360008373ffffffffffffffffffffffffffffffffffffffff1673ffffffffffffffffffffffffffffffffffffffff168152602001908152602001600020549050919050565b610def611b1f565b610df96000611ba6565b565b600a602052806000526040600020600091509050806000018054610e1e90613329565b80601f0160208091040260200160405190810160405280929190818152602001828054610e4a90613329565b8015610e975780601f10610e6c57610100808354040283529160200191610e97565b820191906000526020600020905b815481529060010190602001808311610e7a57829003601f168201915b505050505090806001018054610eac90613329565b80601f0160208091040260200160405190810160405280929190818152602001828054610ed890613329565b8015610f255780601f10610efa57610100808354040283529160200191610f25565b820191906000526020600020905b815481529060010190602001808311610f0857829003601f168201915b505050505090806002018054610f3a90613329565b80601f0160208091040260200160405190810160405280929190818152602001828054610f6690613329565b8015610fb35780601f10610f8857610100808354040283529160200191610fb3565b820191906000526020600020905b815481529060010190602001808311610f9657829003601f168201915b505050505090806003015490806004018054610fce90613329565b80601f0160208091040260200160405190810160405280929190818152602001828054610ffa90613329565b80156110475780601f1061101c57610100808354040283529160200191611047565b820191906000526020600020905b81548152906001019060200180831161102a57829003601f168201915b50505050509080600501805461105c90613329565b80601f016020809104026020016040519081016040528092919081815260200182805461108890613329565b80156110d55780601f106110aa576101008083540402835291602001916110d5565b820191906000526020600020905b8154815290600101906020018083116110b857829003601f168201915b5050505050908060070160009054906101000a900460ff16905087565b6000600660009054906101000a900473ffffffffffffffffffffffffffffffffffffffff16905090565b60606001805461112b90613329565b80601f016020809104026020016040519081016040528092919081815260200182805461115790613329565b80156111a45780601f10611179576101008083540402835291602001916111a4565b820191906000526020600020905b81548152906001019060200180831161118757829003601f168201915b5050505050905090565b6111c06111b96118ae565b8383611c6c565b5050565b60008073ffffffffffffffffffffffffffffffffffffffff168973ffffffffffffffffffffffffffffffffffffffff1603611234576040517f08c379a000000000000000000000000000000000000000000000000000000000815260040161122b90613449565b60405180910390fd5b6000875111611278576040517f08c379a000000000000000000000000000000000000000000000000000000000815260040161126f906134b5565b60405180910390fd5b60008851116112bc576040517f08c379a00000000000000000000000000000000000000000000000000000000081526004016112b390613521565b60405180910390fd5b600085116112ff576040517f08c379a00000000000000000000000000000000000000000000000000000000081526004016112f69061358d565b60405180910390fd5b60088760405161130f91906135e9565b908152602001604051809103902060009054906101000a900460ff161561136b576040517f08c379a00000000000000000000000000000000000000000000000000000000081526004016113629061364c565b60405180910390fd5b60098860405161137b91906135e9565b908152602001604051809103902060009054906101000a900460ff16156113d7576040517f08c379a00000000000000000000000000000000000000000000000000000000081526004016113ce906136b8565b60405180910390fd5b6001600760008282546113ea9190613707565b9250508190555060006007549050600160088960405161140a91906135e9565b908152602001604051809103902060006101000a81548160ff021916908315150217905550600160098a60405161144191906135e9565b908152602001604051809103902060006101000a81548160ff0219169083151502179055506114708a82611ddb565b6040518061010001604052808a815260200189815260200188815260200187815260200186815260200185815260200184815260200160001515815250600a600083815260200190815260200160002060008201518160000190816114d591906138e7565b5060208201518160010190816114eb91906138e7565b50604082015181600201908161150191906138e7565b5060608201518160030155608082015181600401908161152191906138e7565b5060a082015181600501908161153791906138e7565b5060c0820151816006019080519060200190611554929190612690565b5060e08201518160070160006101000a81548160ff0219169083151502179055509050508973ffffffffffffffffffffffffffffffffffffffff16817f3d19dcad70ec98becfb4e1ac4f11ef995530e89a6375001679de6ce0b97cdcb58a6040516115bf91906128c9565b60405180910390a38091505098975050505050505050565b6115e2848484610a6d565b6115f66115ed6118ae565b85858585611df9565b50505050565b6060611607826117e9565b506000611612611faa565b90506000815111611632576040518060200160405280600081525061165d565b8061163c84611fc1565b60405160200161164d9291906139b9565b6040516020818303038152906040525b915050919050565b6000600560008473ffffffffffffffffffffffffffffffffffffffff1673ffffffffffffffffffffffffffffffffffffffff16815260200190815260200160002060008373ffffffffffffffffffffffffffffffffffffffff1673ffffffffffffffffffffffffffffffffffffffff16815260200190815260200160002060009054906101000a900460ff16905092915050565b611701611b1f565b600073ffffffffffffffffffffffffffffffffffffffff168173ffffffffffffffffffffffffffffffffffffffff16036117735760006040517f1e4fbdf700000000000000000000000000000000000000000000000000000000815260040161176a919061298f565b60405180910390fd5b61177c81611ba6565b50565b60007f01ffc9a7000000000000000000000000000000000000000000000000000000007bffffffffffffffffffffffffffffffffffffffffffffffffffffffff1916827bffffffffffffffffffffffffffffffffffffffffffffffffffffffff1916149050919050565b6000806117f5836118c8565b9050600073ffffffffffffffffffffffffffffffffffffffff168173ffffffffffffffffffffffffffffffffffffffff160361186857826040517f7e27328900000000000000000000000000000000000000000000000000000000815260040161185f9190612d30565b60405180910390fd5b80915050919050565b60006004600083815260200190815260200160002060009054906101000a900473ffffffffffffffffffffffffffffffffffffffff169050919050565b600033905090565b6118c3838383600161208f565b505050565b60006002600083815260200190815260200160002060009054906101000a900473ffffffffffffffffffffffffffffffffffffffff169050919050565b600080611911846118c8565b9050600073ffffffffffffffffffffffffffffffffffffffff168373ffffffffffffffffffffffffffffffffffffffff161461195357611952818486612254565b5b600073ffffffffffffffffffffffffffffffffffffffff168173ffffffffffffffffffffffffffffffffffffffff16146119e45761199560008560008061208f565b6001600360008373ffffffffffffffffffffffffffffffffffffffff1673ffffffffffffffffffffffffffffffffffffffff168152602001908152602001600020600082825403925050819055505b600073ffffffffffffffffffffffffffffffffffffffff168573ffffffffffffffffffffffffffffffffffffffff1614611a67576001600360008773ffffffffffffffffffffffffffffffffffffffff1673ffffffffffffffffffffffffffffffffffffffff168152602001908152602001600020600082825401925050819055505b846002600086815260200190815260200160002060006101000a81548173ffffffffffffffffffffffffffffffffffffffff021916908373ffffffffffffffffffffffffffffffffffffffff160217905550838573ffffffffffffffffffffffffffffffffffffffff168273ffffffffffffffffffffffffffffffffffffffff167fddf252ad1be2c89b69c2b068fc378daa952ba7f163c4a11628f55a4df523b3ef60405160405180910390a4809150509392505050565b611b276118ae565b73ffffffffffffffffffffffffffffffffffffffff16611b456110f2565b73ffffffffffffffffffffffffffffffffffffffff1614611ba457611b686118ae565b6040517f118cdaa7000000000000000000000000000000000000000000000000000000008152600401611b9b919061298f565b60405180910390fd5b565b6000600660009054906101000a900473ffffffffffffffffffffffffffffffffffffffff16905081600660006101000a81548173ffffffffffffffffffffffffffffffffffffffff021916908373ffffffffffffffffffffffffffffffffffffffff1602179055508173ffffffffffffffffffffffffffffffffffffffff168173ffffffffffffffffffffffffffffffffffffffff167f8be0079c531659141344cd1fd0a4f28419497f9722a3daafe3b4186f6b6457e060405160405180910390a35050565b600073ffffffffffffffffffffffffffffffffffffffff168273ffffffffffffffffffffffffffffffffffffffff1603611cdd57816040517f5b08ba18000000000000000000000000000000000000000000000000000000008152600401611cd4919061298f565b60405180910390fd5b80600560008573ffffffffffffffffffffffffffffffffffffffff1673ffffffffffffffffffffffffffffffffffffffff16815260200190815260200160002060008473ffffffffffffffffffffffffffffffffffffffff1673ffffffffffffffffffffffffffffffffffffffff16815260200190815260200160002060006101000a81548160ff0219169083151502179055508173ffffffffffffffffffffffffffffffffffffffff168373ffffffffffffffffffffffffffffffffffffffff167f17307eab39ab6107e8899845ad3d59bd9653f200f220920489ca2b5937696c3183604051611dce919061281e565b60405180910390a3505050565b611df5828260405180602001604052806000815250612318565b5050565b60008373ffffffffffffffffffffffffffffffffffffffff163b1115611fa3578273ffffffffffffffffffffffffffffffffffffffff1663150b7a02868685856040518563ffffffff1660e01b8152600401611e589493929190613a32565b6020604051808303816000875af1925050508015611e9457506040513d601f19601f82011682018060405250810190611e919190613a93565b60015b611f18573d8060008114611ec4576040519150601f19603f3d011682016040523d82523d6000602084013e611ec9565b606091505b506000815103611f1057836040517f64a0ae92000000000000000000000000000000000000000000000000000000008152600401611f07919061298f565b60405180910390fd5b805160208201fd5b63150b7a0260e01b7bffffffffffffffffffffffffffffffffffffffffffffffffffffffff1916817bffffffffffffffffffffffffffffffffffffffffffffffffffffffff191614611fa157836040517f64a0ae92000000000000000000000000000000000000000000000000000000008152600401611f98919061298f565b60405180910390fd5b505b5050505050565b606060405180602001604052806000815250905090565b606060006001611fd08461233c565b01905060008167ffffffffffffffff811115611fef57611fee612e27565b5b6040519080825280601f01601f1916602001820160405280156120215781602001600182028036833780820191505090505b509050600082602083010190505b600115612084578080600190039150507f3031323334353637383961626364656600000000000000000000000000000000600a86061a8153600a858161207857612077613ac0565b5b0494506000850361202f575b819350505050919050565b80806120c85750600073ffffffffffffffffffffffffffffffffffffffff168273ffffffffffffffffffffffffffffffffffffffff1614155b156121fc5760006120d8846117e9565b9050600073ffffffffffffffffffffffffffffffffffffffff168373ffffffffffffffffffffffffffffffffffffffff161415801561214357508273ffffffffffffffffffffffffffffffffffffffff168173ffffffffffffffffffffffffffffffffffffffff1614155b801561215657506121548184611665565b155b1561219857826040517fa9fbf51f00000000000000000000000000000000000000000000000000000000815260040161218f919061298f565b60405180910390fd5b81156121fa57838573ffffffffffffffffffffffffffffffffffffffff168273ffffffffffffffffffffffffffffffffffffffff167f8c5be1e5ebec7d5bd14f71427d1e84f3dd0314c0f7b2291e5b200ac8c7c3b92560405160405180910390a45b505b836004600085815260200190815260200160002060006101000a81548173ffffffffffffffffffffffffffffffffffffffff021916908373ffffffffffffffffffffffffffffffffffffffff16021790555050505050565b61225f83838361248f565b61231357600073ffffffffffffffffffffffffffffffffffffffff168373ffffffffffffffffffffffffffffffffffffffff16036122d457806040517f7e2732890000000000000000000000000000000000000000000000000000000081526004016122cb9190612d30565b60405180910390fd5b81816040517f177e802f00000000000000000000000000000000000000000000000000000000815260040161230a929190613aef565b60405180910390fd5b505050565b6123228383612550565b61233761232d6118ae565b6000858585611df9565b505050565b600080600090507a184f03e93ff9f4daa797ed6e38ed64bf6a1f010000000000000000831061239a577a184f03e93ff9f4daa797ed6e38ed64bf6a1f01000000000000000083816123905761238f613ac0565b5b0492506040810190505b6d04ee2d6d415b85acef810000000083106123d7576d04ee2d6d415b85acef810000000083816123cd576123cc613ac0565b5b0492506020810190505b662386f26fc10000831061240657662386f26fc1000083816123fc576123fb613ac0565b5b0492506010810190505b6305f5e100831061242f576305f5e100838161242557612424613ac0565b5b0492506008810190505b612710831061245457612710838161244a57612449613ac0565b5b0492506004810190505b60648310612477576064838161246d5761246c613ac0565b5b0492506002810190505b600a8310612486576001810190505b80915050919050565b60008073ffffffffffffffffffffffffffffffffffffffff168373ffffffffffffffffffffffffffffffffffffffff161415801561254757508273ffffffffffffffffffffffffffffffffffffffff168473ffffffffffffffffffffffffffffffffffffffff16148061250857506125078484611665565b5b8061254657508273ffffffffffffffffffffffffffffffffffffffff1661252e83611871565b73ffffffffffffffffffffffffffffffffffffffff16145b5b90509392505050565b600073ffffffffffffffffffffffffffffffffffffffff168273ffffffffffffffffffffffffffffffffffffffff16036125c25760006040517f64a0ae920000000000000000000000000000000000000000000000000000000081526004016125b9919061298f565b60405180910390fd5b60006125d083836000611905565b9050600073ffffffffffffffffffffffffffffffffffffffff168173ffffffffffffffffffffffffffffffffffffffff16146126445760006040517f73c6ac6e00000000000000000000000000000000000000000000000000000000815260040161263b919061298f565b60405180910390fd5b505050565b604051806101000160405280606081526020016060815260200160608152602001600081526020016060815260200160608152602001606081526020016000151581525090565b8280548282559060005260206000209081019282156126d8579160200282015b828111156126d75782518290816126c791906138e7565b50916020019190600101906126b0565b5b5090506126e591906126e9565b5090565b5b808211156127095760008181612700919061270d565b506001016126ea565b5090565b50805461271990613329565b6000825580601f1061272b575061274a565b601f016020900490600052602060002090810190612749919061274d565b5b50565b5b8082111561276657600081600090555060010161274e565b5090565b6000604051905090565b600080fd5b600080fd5b60007fffffffff0000000000000000000000000000000000000000000000000000000082169050919050565b6127b38161277e565b81146127be57600080fd5b50565b6000813590506127d0816127aa565b92915050565b6000602082840312156127ec576127eb612774565b5b60006127fa848285016127c1565b91505092915050565b60008115159050919050565b61281881612803565b82525050565b6000602082019050612833600083018461280f565b92915050565b600081519050919050565b600082825260208201905092915050565b60005b83811015612873578082015181840152602081019050612858565b60008484015250505050565b6000601f19601f8301169050919050565b600061289b82612839565b6128a58185612844565b93506128b5818560208601612855565b6128be8161287f565b840191505092915050565b600060208201905081810360008301526128e38184612890565b905092915050565b6000819050919050565b6128fe816128eb565b811461290957600080fd5b50565b60008135905061291b816128f5565b92915050565b60006020828403121561293757612936612774565b5b60006129458482850161290c565b91505092915050565b600073ffffffffffffffffffffffffffffffffffffffff82169050919050565b60006129798261294e565b9050919050565b6129898161296e565b82525050565b60006020820190506129a46000830184612980565b92915050565b6129b38161296e565b81146129be57600080fd5b50565b6000813590506129d0816129aa565b92915050565b600080604083850312156129ed576129ec612774565b5b60006129fb858286016129c1565b9250506020612a0c8582860161290c565b9150509250929050565b600082825260208201905092915050565b6000612a3282612839565b612a3c8185612a16565b9350612a4c818560208601612855565b612a558161287f565b840191505092915050565b612a69816128eb565b82525050565b600081519050919050565b600082825260208201905092915050565b6000819050602082019050919050565b6000612aa78383612a27565b905092915050565b6000602082019050919050565b6000612ac782612a6f565b612ad18185612a7a565b935083602082028501612ae385612a8b565b8060005b85811015612b1f5784840389528151612b008582612a9b565b9450612b0b83612aaf565b925060208a01995050600181019050612ae7565b50829750879550505050505092915050565b612b3a81612803565b82525050565b6000610100830160008301518482036000860152612b5e8282612a27565b91505060208301518482036020860152612b788282612a27565b91505060408301518482036040860152612b928282612a27565b9150506060830151612ba76060860182612a60565b5060808301518482036080860152612bbf8282612a27565b91505060a083015184820360a0860152612bd98282612a27565b91505060c083015184820360c0860152612bf38282612abc565b91505060e0830151612c0860e0860182612b31565b508091505092915050565b60006020820190508181036000830152612c2d8184612b40565b905092915050565b600080600060608486031215612c4e57612c4d612774565b5b6000612c5c868287016129c1565b9350506020612c6d868287016129c1565b9250506040612c7e8682870161290c565b9150509250925092565b612c9181612803565b8114612c9c57600080fd5b50565b600081359050612cae81612c88565b92915050565b60008060408385031215612ccb57612cca612774565b5b6000612cd98582860161290c565b9250506020612cea85828601612c9f565b9150509250929050565b600060208284031215612d0a57612d09612774565b5b6000612d18848285016129c1565b91505092915050565b612d2a816128eb565b82525050565b6000602082019050612d456000830184612d21565b92915050565b600060e0820190508181036000830152612d65818a612890565b90508181036020830152612d798189612890565b90508181036040830152612d8d8188612890565b9050612d9c6060830187612d21565b8181036080830152612dae8186612890565b905081810360a0830152612dc28185612890565b9050612dd160c083018461280f565b98975050505050505050565b60008060408385031215612df457612df3612774565b5b6000612e02858286016129c1565b9250506020612e1385828601612c9f565b9150509250929050565b600080fd5b600080fd5b7f4e487b7100000000000000000000000000000000000000000000000000000000600052604160045260246000fd5b612e5f8261287f565b810181811067ffffffffffffffff82111715612e7e57612e7d612e27565b5b80604052505050565b6000612e9161276a565b9050612e9d8282612e56565b919050565b600067ffffffffffffffff821115612ebd57612ebc612e27565b5b612ec68261287f565b9050602081019050919050565b82818337600083830152505050565b6000612ef5612ef084612ea2565b612e87565b905082815260208101848484011115612f1157612f10612e22565b5b612f1c848285612ed3565b509392505050565b600082601f830112612f3957612f38612e1d565b5b8135612f49848260208601612ee2565b91505092915050565b600067ffffffffffffffff821115612f6d57612f6c612e27565b5b602082029050602081019050919050565b600080fd5b6000612f96612f9184612f52565b612e87565b90508083825260208201905060208402830185811115612fb957612fb8612f7e565b5b835b8181101561300057803567ffffffffffffffff811115612fde57612fdd612e1d565b5b808601612feb8982612f24565b85526020850194505050602081019050612fbb565b5050509392505050565b600082601f83011261301f5761301e612e1d565b5b813561302f848260208601612f83565b91505092915050565b600080600080600080600080610100898b03121561305957613058612774565b5b60006130678b828c016129c1565b985050602089013567ffffffffffffffff81111561308857613087612779565b5b6130948b828c01612f24565b975050604089013567ffffffffffffffff8111156130b5576130b4612779565b5b6130c18b828c01612f24565b965050606089013567ffffffffffffffff8111156130e2576130e1612779565b5b6130ee8b828c01612f24565b95505060806130ff8b828c0161290c565b94505060a089013567ffffffffffffffff8111156131205761311f612779565b5b61312c8b828c01612f24565b93505060c089013567ffffffffffffffff81111561314d5761314c612779565b5b6131598b828c01612f24565b92505060e089013567ffffffffffffffff81111561317a57613179612779565b5b6131868b828c0161300a565b9150509295985092959890939650565b600067ffffffffffffffff8211156131b1576131b0612e27565b5b6131ba8261287f565b9050602081019050919050565b60006131da6131d584613196565b612e87565b9050828152602081018484840111156131f6576131f5612e22565b5b613201848285612ed3565b509392505050565b600082601f83011261321e5761321d612e1d565b5b813561322e8482602086016131c7565b91505092915050565b6000806000806080858703121561325157613250612774565b5b600061325f878288016129c1565b9450506020613270878288016129c1565b93505060406132818782880161290c565b925050606085013567ffffffffffffffff8111156132a2576132a1612779565b5b6132ae87828801613209565b91505092959194509250565b600080604083850312156132d1576132d0612774565b5b60006132df858286016129c1565b92505060206132f0858286016129c1565b9150509250929050565b7f4e487b7100000000000000000000000000000000000000000000000000000000600052602260045260246000fd5b6000600282049050600182168061334157607f821691505b602082108103613354576133536132fa565b5b50919050565b7f546f6b656e20646f6573206e6f74206578697374000000000000000000000000600082015250565b6000613390601483612844565b915061339b8261335a565b602082019050919050565b600060208201905081810360008301526133bf81613383565b9050919050565b60006060820190506133db6000830186612980565b6133e86020830185612d21565b6133f56040830184612980565b949350505050565b7f43616e6e6f74206d696e7420746f20746865207a65726f206164647265737300600082015250565b6000613433601f83612844565b915061343e826133fd565b602082019050919050565b6000602082019050818103600083015261346281613426565b9050919050565b7f50726f70657274792049442063616e6e6f7420626520656d7074790000000000600082015250565b600061349f601b83612844565b91506134aa82613469565b602082019050919050565b600060208201905081810360008301526134ce81613492565b9050919050565b7f537572766579206e756d6265722063616e6e6f7420626520656d707479000000600082015250565b600061350b601d83612844565b9150613516826134d5565b602082019050919050565b6000602082019050818103600083015261353a816134fe565b9050919050565b7f41726561206d7573742062652067726561746572207468616e207a65726f0000600082015250565b6000613577601e83612844565b915061358282613541565b602082019050919050565b600060208201905081810360008301526135a68161356a565b9050919050565b600081905092915050565b60006135c382612839565b6135cd81856135ad565b93506135dd818560208601612855565b80840191505092915050565b60006135f582846135b8565b915081905092915050565b7f50726f706572747920494420616c726561647920657869737473000000000000600082015250565b6000613636601a83612844565b915061364182613600565b602082019050919050565b6000602082019050818103600083015261366581613629565b9050919050565b7f537572766579206e756d62657220616c72656164792065786973747300000000600082015250565b60006136a2601c83612844565b91506136ad8261366c565b602082019050919050565b600060208201905081810360008301526136d181613695565b9050919050565b7f4e487b7100000000000000000000000000000000000000000000000000000000600052601160045260246000fd5b6000613712826128eb565b915061371d836128eb565b9250828201905080821115613735576137346136d8565b5b92915050565b60008190508160005260206000209050919050565b60006020601f8301049050919050565b600082821b905092915050565b60006008830261379d7fffffffffffffffffffffffffffffffffffffffffffffffffffffffffffffffff82613760565b6137a78683613760565b95508019841693508086168417925050509392505050565b6000819050919050565b60006137e46137df6137da846128eb565b6137bf565b6128eb565b9050919050565b6000819050919050565b6137fe836137c9565b61381261380a826137eb565b84845461376d565b825550505050565b600090565b61382761381a565b6138328184846137f5565b505050565b5b818110156138565761384b60008261381f565b600181019050613838565b5050565b601f82111561389b5761386c8161373b565b61387584613750565b81016020851015613884578190505b61389861389085613750565b830182613837565b50505b505050565b600082821c905092915050565b60006138be600019846008026138a0565b1980831691505092915050565b60006138d783836138ad565b9150826002028217905092915050565b6138f082612839565b67ffffffffffffffff81111561390957613908612e27565b5b6139138254613329565b61391e82828561385a565b600060209050601f831160018114613951576000841561393f578287015190505b61394985826138cb565b8655506139b1565b601f19841661395f8661373b565b60005b8281101561398757848901518255600182019150602085019450602081019050613962565b868310156139a457848901516139a0601f8916826138ad565b8355505b6001600288020188555050505b505050505050565b60006139c582856135b8565b91506139d182846135b8565b91508190509392505050565b600081519050919050565b600082825260208201905092915050565b6000613a04826139dd565b613a0e81856139e8565b9350613a1e818560208601612855565b613a278161287f565b840191505092915050565b6000608082019050613a476000830187612980565b613a546020830186612980565b613a616040830185612d21565b8181036060830152613a7381846139f9565b905095945050505050565b600081519050613a8d816127aa565b92915050565b600060208284031215613aa957613aa8612774565b5b6000613ab784828501613a7e565b91505092915050565b7f4e487b7100000000000000000000000000000000000000000000000000000000600052601260045260246000fd5b6000604082019050613b046000830185612980565b613b116020830184612d21565b939250505056fea26469706673582212209a8a38f46dcd94a85657ac683cb36b6a444b1c81543c623782ff53448ac3257e64736f6c63430008180033",
  "linkReferences": {},
  "deployedLinkReferences": {}
}